{
  "_format": "hh-sol-artifact-1",
  "contractName": "ERCToken2",
  "sourceName": "contracts/ERCToken2.sol",
  "abi": [
    {
      "anonymous": false,
      "inputs": [
        {
          "indexed": true,
          "internalType": "address",
          "name": "tokenOwner",
          "type": "address"
        },
        {
          "indexed": true,
          "internalType": "address",
          "name": "spender",
          "type": "address"
        },
        {
          "indexed": false,
          "internalType": "uint256",
          "name": "tokens",
          "type": "uint256"
        }
      ],
      "name": "Approval",
      "type": "event"
    },
    {
      "anonymous": false,
      "inputs": [
        {
          "indexed": true,
          "internalType": "address",
          "name": "from",
          "type": "address"
        },
        {
          "indexed": true,
          "internalType": "address",
          "name": "to",
          "type": "address"
        },
        {
          "indexed": false,
          "internalType": "uint256",
          "name": "tokens",
          "type": "uint256"
        }
      ],
      "name": "Transfer",
      "type": "event"
    },
    {
      "inputs": [
        {
          "internalType": "address",
          "name": "owner",
          "type": "address"
        },
        {
          "internalType": "address",
          "name": "delegate",
          "type": "address"
        }
      ],
      "name": "allowance",
      "outputs": [
        {
          "internalType": "uint256",
          "name": "",
          "type": "uint256"
        }
      ],
      "stateMutability": "view",
      "type": "function"
    },
    {
      "inputs": [
        {
          "internalType": "address",
          "name": "delegate",
          "type": "address"
        },
        {
          "internalType": "uint256",
          "name": "numTokens",
          "type": "uint256"
        }
      ],
      "name": "approve",
      "outputs": [
        {
          "internalType": "bool",
          "name": "",
          "type": "bool"
        }
      ],
      "stateMutability": "nonpayable",
      "type": "function"
    },
    {
      "inputs": [
        {
          "internalType": "address",
          "name": "tokenOwner",
          "type": "address"
        }
      ],
      "name": "balanceOf",
      "outputs": [
        {
          "internalType": "uint256",
          "name": "",
          "type": "uint256"
        }
      ],
      "stateMutability": "view",
      "type": "function"
    },
    {
      "inputs": [],
      "name": "decimals",
      "outputs": [
        {
          "internalType": "uint8",
          "name": "",
          "type": "uint8"
        }
      ],
      "stateMutability": "view",
      "type": "function"
    },
    {
      "inputs": [
        {
          "internalType": "uint256",
          "name": "total",
          "type": "uint256"
        }
      ],
      "name": "initialize",
      "outputs": [],
      "stateMutability": "nonpayable",
      "type": "function"
    },
    {
      "inputs": [],
      "name": "name",
      "outputs": [
        {
          "internalType": "string",
          "name": "",
          "type": "string"
        }
      ],
      "stateMutability": "view",
      "type": "function"
    },
    {
      "inputs": [],
      "name": "symbol",
      "outputs": [
        {
          "internalType": "string",
          "name": "",
          "type": "string"
        }
      ],
      "stateMutability": "view",
      "type": "function"
    },
    {
      "inputs": [],
      "name": "totalSupply",
      "outputs": [
        {
          "internalType": "uint256",
          "name": "",
          "type": "uint256"
        }
      ],
      "stateMutability": "view",
      "type": "function"
    },
    {
      "inputs": [
        {
          "internalType": "address",
          "name": "receiver",
          "type": "address"
        },
        {
          "internalType": "uint256",
          "name": "numTokens",
          "type": "uint256"
        }
      ],
      "name": "transfer",
      "outputs": [
        {
          "internalType": "bool",
          "name": "",
          "type": "bool"
        }
      ],
      "stateMutability": "nonpayable",
      "type": "function"
    },
    {
      "inputs": [
        {
          "internalType": "address",
          "name": "owner",
          "type": "address"
        },
        {
          "internalType": "address",
          "name": "buyer",
          "type": "address"
        },
        {
          "internalType": "uint256",
          "name": "numTokens",
          "type": "uint256"
        }
      ],
      "name": "transferFrom",
      "outputs": [
        {
          "internalType": "bool",
          "name": "",
          "type": "bool"
        }
      ],
      "stateMutability": "nonpayable",
      "type": "function"
    }
  ],
  "bytecode": "0x608060405234801561001057600080fd5b50611359806100206000396000f3fe608060405234801561001057600080fd5b506004361061009e5760003560e01c806370a082311161006657806370a082311461015d57806395d89b411461018d578063a9059cbb146101ab578063dd62ed3e146101db578063fe4b84df1461020b5761009e565b806306fdde03146100a3578063095ea7b3146100c157806318160ddd146100f157806323b872dd1461010f578063313ce5671461013f575b600080fd5b6100ab610227565b6040516100b89190610fb6565b60405180910390f35b6100db60048036038101906100d69190610e8a565b6102b5565b6040516100e89190610f9b565b60405180910390f35b6100f96103a7565b6040516101069190611018565b60405180910390f35b61012960048036038101906101249190610e3b565b6103b1565b6040516101369190610f9b565b60405180910390f35b610147610731565b6040516101549190611033565b60405180910390f35b61017760048036038101906101729190610dd6565b610744565b6040516101849190611018565b60405180910390f35b61019561078d565b6040516101a29190610fb6565b60405180910390f35b6101c560048036038101906101c09190610e8a565b61081b565b6040516101d29190610f9b565b60405180910390f35b6101f560048036038101906101f09190610dff565b610adf565b6040516102029190611018565b60405180910390f35b61022560048036038101906102209190610ec6565b610b66565b005b60008054610234906111ad565b80601f0160208091040260200160405190810160405280929190818152602001828054610260906111ad565b80156102ad5780601f10610282576101008083540402835291602001916102ad565b820191906000526020600020905b81548152906001019060200180831161029057829003601f168201915b505050505081565b600081600460003373ffffffffffffffffffffffffffffffffffffffff1673ffffffffffffffffffffffffffffffffffffffff16815260200190815260200160002060008573ffffffffffffffffffffffffffffffffffffffff1673ffffffffffffffffffffffffffffffffffffffff168152602001908152602001600020819055508273ffffffffffffffffffffffffffffffffffffffff163373ffffffffffffffffffffffffffffffffffffffff167f8c5be1e5ebec7d5bd14f71427d1e84f3dd0314c0f7b2291e5b200ac8c7c3b925846040516103959190611018565b60405180910390a36001905092915050565b6000600554905090565b6000600360008573ffffffffffffffffffffffffffffffffffffffff1673ffffffffffffffffffffffffffffffffffffffff168152602001908152602001600020548211156103ff57600080fd5b600460008573ffffffffffffffffffffffffffffffffffffffff1673ffffffffffffffffffffffffffffffffffffffff16815260200190815260200160002060003373ffffffffffffffffffffffffffffffffffffffff1673ffffffffffffffffffffffffffffffffffffffff1681526020019081526020016000205482111561048857600080fd5b6104da82600360008773ffffffffffffffffffffffffffffffffffffffff1673ffffffffffffffffffffffffffffffffffffffff16815260200190815260200160002054610c6a90919063ffffffff16565b600360008673ffffffffffffffffffffffffffffffffffffffff1673ffffffffffffffffffffffffffffffffffffffff168152602001908152602001600020819055506105ac82600460008773ffffffffffffffffffffffffffffffffffffffff1673ffffffffffffffffffffffffffffffffffffffff16815260200190815260200160002060003373ffffffffffffffffffffffffffffffffffffffff1673ffffffffffffffffffffffffffffffffffffffff16815260200190815260200160002054610c6a90919063ffffffff16565b600460008673ffffffffffffffffffffffffffffffffffffffff1673ffffffffffffffffffffffffffffffffffffffff16815260200190815260200160002060003373ffffffffffffffffffffffffffffffffffffffff1673ffffffffffffffffffffffffffffffffffffffff1681526020019081526020016000208190555061067e82600360008673ffffffffffffffffffffffffffffffffffffffff1673ffffffffffffffffffffffffffffffffffffffff16815260200190815260200160002054610cb790919063ffffffff16565b600360008573ffffffffffffffffffffffffffffffffffffffff1673ffffffffffffffffffffffffffffffffffffffff168152602001908152602001600020819055508273ffffffffffffffffffffffffffffffffffffffff168473ffffffffffffffffffffffffffffffffffffffff167fddf252ad1be2c89b69c2b068fc378daa952ba7f163c4a11628f55a4df523b3ef8460405161071e9190611018565b60405180910390a3600190509392505050565b600260009054906101000a900460ff1681565b6000600360008373ffffffffffffffffffffffffffffffffffffffff1673ffffffffffffffffffffffffffffffffffffffff168152602001908152602001600020549050919050565b6001805461079a906111ad565b80601f01602080910402602001604051908101604052809291908181526020018280546107c6906111ad565b80156108135780601f106107e857610100808354040283529160200191610813565b820191906000526020600020905b8154815290600101906020018083116107f657829003601f168201915b505050505081565b6000600360003373ffffffffffffffffffffffffffffffffffffffff1673ffffffffffffffffffffffffffffffffffffffff1681526020019081526020016000205482111561086957600080fd5b6064600360003373ffffffffffffffffffffffffffffffffffffffff1673ffffffffffffffffffffffffffffffffffffffff168152602001908152602001600020546108b591906110c0565b6007819055506362aa1e2e4210610901576040517f08c379a00000000000000000000000000000000000000000000000000000000081526004016108f890610fd8565b60405180910390fd5b600754821115610946576040517f08c379a000000000000000000000000000000000000000000000000000000000815260040161093d90610ff8565b60405180910390fd5b61099882600360003373ffffffffffffffffffffffffffffffffffffffff1673ffffffffffffffffffffffffffffffffffffffff16815260200190815260200160002054610c6a90919063ffffffff16565b600360003373ffffffffffffffffffffffffffffffffffffffff1673ffffffffffffffffffffffffffffffffffffffff16815260200190815260200160002081905550610a2d82600360008673ffffffffffffffffffffffffffffffffffffffff1673ffffffffffffffffffffffffffffffffffffffff16815260200190815260200160002054610cb790919063ffffffff16565b600360008573ffffffffffffffffffffffffffffffffffffffff1673ffffffffffffffffffffffffffffffffffffffff168152602001908152602001600020819055508273ffffffffffffffffffffffffffffffffffffffff163373ffffffffffffffffffffffffffffffffffffffff167fddf252ad1be2c89b69c2b068fc378daa952ba7f163c4a11628f55a4df523b3ef84604051610acd9190611018565b60405180910390a36001905092915050565b6000600460008473ffffffffffffffffffffffffffffffffffffffff1673ffffffffffffffffffffffffffffffffffffffff16815260200190815260200160002060008373ffffffffffffffffffffffffffffffffffffffff1673ffffffffffffffffffffffffffffffffffffffff16815260200190815260200160002054905092915050565b6040518060400160405280600981526020017f54657374546f6b656e000000000000000000000000000000000000000000000081525060009080519060200190610bb1929190610d09565b506040518060400160405280600281526020017f545400000000000000000000000000000000000000000000000000000000000081525060019080519060200190610bfd929190610d09565b506012600260006101000a81548160ff021916908360ff16021790555080600581905550600554600360003373ffffffffffffffffffffffffffffffffffffffff1673ffffffffffffffffffffffffffffffffffffffff1681526020019081526020016000208190555050565b600082821115610ca3577f4e487b7100000000000000000000000000000000000000000000000000000000600052600160045260246000fd5b8183610caf91906110f1565b905092915050565b6000808284610cc6919061106a565b905083811015610cff577f4e487b7100000000000000000000000000000000000000000000000000000000600052600160045260246000fd5b8091505092915050565b828054610d15906111ad565b90600052602060002090601f016020900481019282610d375760008555610d7e565b82601f10610d5057805160ff1916838001178555610d7e565b82800160010185558215610d7e579182015b82811115610d7d578251825591602001919060010190610d62565b5b509050610d8b9190610d8f565b5090565b5b80821115610da8576000816000905550600101610d90565b5090565b600081359050610dbb816112f5565b92915050565b600081359050610dd08161130c565b92915050565b600060208284031215610de857600080fd5b6000610df684828501610dac565b91505092915050565b60008060408385031215610e1257600080fd5b6000610e2085828601610dac565b9250506020610e3185828601610dac565b9150509250929050565b600080600060608486031215610e5057600080fd5b6000610e5e86828701610dac565b9350506020610e6f86828701610dac565b9250506040610e8086828701610dc1565b9150509250925092565b60008060408385031215610e9d57600080fd5b6000610eab85828601610dac565b9250506020610ebc85828601610dc1565b9150509250929050565b600060208284031215610ed857600080fd5b6000610ee684828501610dc1565b91505092915050565b610ef881611137565b82525050565b6000610f098261104e565b610f138185611059565b9350610f2381856020860161117a565b610f2c8161126c565b840191505092915050565b6000610f44601483611059565b9150610f4f8261127d565b602082019050919050565b6000610f67602183611059565b9150610f72826112a6565b604082019050919050565b610f8681611163565b82525050565b610f958161116d565b82525050565b6000602082019050610fb06000830184610eef565b92915050565b60006020820190508181036000830152610fd08184610efe565b905092915050565b60006020820190508181036000830152610ff181610f37565b9050919050565b6000602082019050818103600083015261101181610f5a565b9050919050565b600060208201905061102d6000830184610f7d565b92915050565b60006020820190506110486000830184610f8c565b92915050565b600081519050919050565b600082825260208201905092915050565b600061107582611163565b915061108083611163565b9250827fffffffffffffffffffffffffffffffffffffffffffffffffffffffffffffffff038211156110b5576110b46111df565b5b828201905092915050565b60006110cb82611163565b91506110d683611163565b9250826110e6576110e561120e565b5b828204905092915050565b60006110fc82611163565b915061110783611163565b92508282101561111a576111196111df565b5b828203905092915050565b600061113082611143565b9050919050565b60008115159050919050565b600073ffffffffffffffffffffffffffffffffffffffff82169050919050565b6000819050919050565b600060ff82169050919050565b60005b8381101561119857808201518184015260208101905061117d565b838111156111a7576000848401525b50505050565b600060028204905060018216806111c557607f821691505b602082108114156111d9576111d861123d565b5b50919050565b7f4e487b7100000000000000000000000000000000000000000000000000000000600052601160045260246000fd5b7f4e487b7100000000000000000000000000000000000000000000000000000000600052601260045260246000fd5b7f4e487b7100000000000000000000000000000000000000000000000000000000600052602260045260246000fd5b6000601f19601f8301169050919050565b7f63616e7420646f206e6f77207472616e73666572000000000000000000000000600082015250565b7f43616e74207472616e73666572206d6f7265207468616e20312070657263656e60008201527f7400000000000000000000000000000000000000000000000000000000000000602082015250565b6112fe81611125565b811461130957600080fd5b50565b61131581611163565b811461132057600080fd5b5056fea2646970667358221220cec9771e43cdc1556d519ef89023d333cbaabd2befa8f4d55303889d486d370e64736f6c63430008030033",
  "linkReferences": {},
  "deployedLinkReferences": {}
}